:020000040800F2
:100000008037002055050008B5020008B702000837
:10001000C1020008CB020008D50200080000000061
:10002000000000000000000000000000DF020008E7
:10003000E1020008000000006B050008E302000870
:100040006F0500086F0500086F050008E70200084B
:100050006F0500086F050008E50200081517000885
:100060006F0500086F0500086F0500086F050008A0
:100070006F0500086F0500086F0500086F05000890
:100080006F0500086F0500086F0500086F05000880
:100090006F0500086F0500086F0500086F05000870
:1000A0006F0500086F0500086F0500086F05000860
:1000B0006F0500086F0500086F0500086F05000850
:1000C0006F0500086F0500086F0500086F05000840
:1000D0006F05000837160008F74700086F0500088D
:1000E0006F0500086F0500086F05000800F002F8B2
:1000F00000F0B6F80AA090E8000C82448344AAF10C
:100100000107DA4501D100F0ABF8AFF2090EBAE809
:100110000F0013F0010F18BFFB1A43F0010318473B
:100120008CAD0000ACAD00000A444FF0000C10F89C
:10013000013B13F0070408BF10F8014B1D1108BF65
:1001400010F8015B641E05D010F8016B641E01F805
:10015000016BF9D113F0080F1EBF10F8014BAD1C55
:100160000C1B09D16D1E58BF01F801CBFAD505E073
:1001700014F8016B01F8016B6D1EF9D59142D6D3CD
:10018000704700000023002400250026103A28BFF5
:1001900078C1FBD8520728BF30C148BF0B607047F9
:1001A0006E2906F0D987702906F05983662909F06F
:1001B0008487652909F08187672909F07E8761298D
:1001C000AFF3008003681B0A28BF41F08001692952
:1001D00006F0CA82642906F0C782752906F0C48237
:1001E0006F2907F0D682782906F02583E92907F0E0
:1001F0007182E42907F06E82F52907F06B82EF29FE
:1002000007F0D382F82906F024830368DB0928BFAE
:1002100041F08001632907F0F281732907F0F7812B
:10022000E32907F0CF83F32907F0D4830020704738
:100230001FB59DE8030006F0E3FE06F028FD07F079
:1002400007FB04000020002109F0B8F8401C6060A2
:100250000020002109F0C8F8E0601FBD10B510BDF6
:1002600007F010FE1146FFF7E3FF02F0D4F807F0A5
:100270002EFE03B4FFF7F2FF03BC07F09FFE000061
:100280000B49D1F800C04A685CF8043B1068184478
:1002900042F8040B8C4528BFA1F1DC0C8A4228BF30
:1002A000A1F1DC02C1F800C04A6020F000407047B4
:1002B000142D002070470CA11A4801F09CF9FEE7AC
:1002C00019A1184801F097F9FEE726A1154801F099
:1002D00092F9FEE732A1134801F08DF9FEE770476D
:1002E00070477047704770470D0A2A2A2A2A2A2A1F
:1002F0002A2A2A2A2A2A2A2A2A2A2A2A2A486172C1
:10030000644661756C745F48616E646C65722A2A1C
:100310002A2A2A2A2A2A2A2A2A2A2A2A2A2A2A2A3D
:100320002A0D0A00003801400D0A2A2A2A2A2A2A00
:100330002A2A2A2A2A2A2A2A2A2A2A2A2A4D656D7C
:100340004D616E6167655F48616E646C65722A2AF3
:100350002A2A2A2A2A2A2A2A2A2A2A2A2A2A2A2AFD
:100360002A0D0A000D0A2A2A2A2A2A2A2A2A2A2A91
:100370002A2A2A2A2A2A2A2A2A4275734661756C51
:10038000745F48616E646C65722A2A2A2A2A2A2AB6
:100390002A2A2A2A2A2A2A2A2A2A2A2A0D0A00004E
:1003A0000D0A2A2A2A2A2A2A2A2A2A2A2A2A2A2AEA
:1003B0002A2A2A2A2A55736167654661756C745F1B
:1003C00048616E646C65722A2A2A2A2A2A2A2A2AF5
:1003D0002A2A2A2A2A2A2A2A2A2A0D0A0000000062
:1003E0000CB50022019200925248016841F480311C
:1003F00001604FF4A063016801F40031009101999C
:10040000491C0191009911B901999942F3D10168F0
:10041000890302D50121009100E000920099012991
:1004200030D145490A6842F010020A600A6822F099
:1004300003020A600A6842F002020A6041684160F1
:1004400041684160416841F480614160416821F444
:100450007C114160416841F4E8114160016841F05C
:100460008071016001688901FCD5416821F00301B8
:100470004160416841F0020141604168C1F381017E
:100480000229FAD10CBDABE710B52A48016841F04A
:10049000010101604168294A114041600168284A10
:1004A00011400160016821F480210160416821F45C
:1004B000FE0141604FF41F018160FFF7E4FF214915
:1004C0004FF00060086010BD10B51A4A506800F087
:1004D0000C011D4B1D4800290ED004290ED00829FF
:1004E0000ED003605168194AC1F30311121D515C0B
:1004F0000268CA40026010BD0360F3E70360F1E7E1
:10050000516801F47011536803F48033022404EB42
:10051000914133B153689B0307D50D4B594301609B
:10052000E0E70B4B59430160DCE7074B594301609F
:10053000D8E7000000100240002002400000FFF851
:10054000FFFFF6FE08ED00E000127A000000002038
:1005500000093D000948804709480047FEE7FEE7DB
:10056000FEE7FEE7FEE7FEE7FEE7FEE7FEE7FEE763
:1005700004480549054A064B7047000089040008F5
:10058000ED000008802D002080370020802F002003
:10059000802F00202A4908432A490860704770B517
:1005A0000F23C27801260178002A1ED0254A12683E
:1005B00002F4E062C2F5E062120AC2F10404D34020
:1005C0004578A54082781A402A43120101F1E021C2
:1005D00081F80024007800F01F018E40400980005F
:1005E00000F1E020C0F8006170BD01F01F008640FE
:1005F0004809800000F1E020C0F8806170BD124A17
:10060000114001430F48001F016070470D4A121D41
:10061000002903D0116801431160704711688143BC
:10062000116070474FF0E021042804D0086920F0E1
:10063000040008617047086940F0040008617047D1
:100640000000FA050CED00E080FFFF1F10B59C498B
:10065000884209D10121042000F07DFA0021BDE883
:100660001040042000F077BA9649884209D1012150
:10067000082000F070FA0021BDE81040082000F0CA
:100680006ABA9149884209D10121102000F063FA29
:100690000021BDE81040102000F05DBA8B4988426F
:1006A00009D10121202000F056FA0021BDE81040B8
:1006B000202000F050BA8649884209D1012140200B
:1006C00000F049FA0021BDE81040402000F043BA94
:1006D0008049884209D10121802000F03CFA0021A4
:1006E000BDE81040802000F036BA7B4988420AD12C
:1006F00084150121204600F02EFA2046BDE8104066
:10070000002100F028BA10BD10B50121084600F004
:1007100022FA0021BDE81040012000F01CBA2DE9AA
:10072000F0410022CC7804F00F03E40601D58C7868
:1007300023430C784FF00F0714F0FF0F4FF0010C1C
:100740001CD005680CFA02F40E882640A64211D18E
:10075000960007FA06F825EA080503FA06F848EABB
:100760000505CE78282E02D0482E02D002E0446142
:1007700000E00461521C082AE4D305600A88FF2ABD
:100780001ED94568002202F108060CFA06F40E880C
:100790002640A64210D1960007FA06F825EA080579
:1007A00003FA06F848EA0505CE78282E00D1446100
:1007B000CE78482E00D10461521C082AE3D345604C
:1007C000BDE8F0814FF6FF710180022181700421A4
:1007D000C17070470246002092680A4200D0012092
:1007E0007047806880B2704702460020D2680A4293
:1007F00000D001207047C06880B270470161704727
:1008000041617047002A01D0016170474161704722
:10081000C160704741F48032826181618261816987
:100820008069704710B52D4B1A684FF680742240CE
:1008300042EA00100843186010BD2949C86170479A
:10084000F0B5264C002801DAE36900E06368C0F3E4
:100850000346420D120185B2C0F301579540032FA4
:1008600007D0C2020CD50322B240934343F070621A
:1008700009E023F07062636823F07063636002E054
:10088000AB4343F0706201B12A43002801DAE26110
:10089000F0BD6260F0BD10B58A07120F0F239340C0
:1008A00021F003040D4921448C689C438C608B68C3
:1008B000904003438B6010BD0949DC3108607047EC
:1008C00000080140000C01400010014000140140EC
:1008D00000180140001C01400020014000000140C0
:1008E00000002042B448016841F001010160416804
:1008F000B24A114041600168B14A1140016001688B
:1009000021F480210160416821F4FE0141604FF42F
:100910001F0181607047A8490A6822F480320A608A
:100920000A6822F480220A60B0F5803F07D0B0F553
:10093000802F03D1086840F4A02008607047086841
:1009400040F48030086070470346002059099A4AF5
:1009500001290AD002290AD0516A03F01F0201239B
:1009600093400B4200D0012070471168F5E7116AEF
:10097000F3E718B5002000904FF4A0643120FFF792
:10098000E3FF0099491C00910099A14201D0002881
:10099000F4D03120FFF7D8FF08B1012018BD0020A6
:1009A00018BD854A116821F0F80141EAC0001060C5
:1009B00070478449086070477F4B5A6822F47C1264
:1009C00008431043586070477E49086670477A4A6A
:1009D000516821F003010143516070477648406837
:1009E00000F00C007047744A516821F0F001014397
:1009F00051607047704A516821F4E06101435160D1
:100A000070476D4A516821F4605141EAC00050605E
:100A10007047694A002903D0517A014351727047E7
:100A2000517A8143517270476649D83108607047E6
:100A3000614A516821F440410143516070475E4969
:100A4000002220310A7001F82029012805D004284D
:100A500002D1052081F820007047012081F8200094
:100A6000704759490860704753490A6A02430A624D
:100A70007047554944390860704710B54E4A51686F
:100A800001F00C01514B002927D0042927D0082957
:100A900027D00360516801F0F00109094C4B5C5C00
:100AA0000168E1404160546804F4E064240A1C5D7C
:100AB00021FA04F48460546804F46054E40A1B5D71
:100AC000D940C160526802F44042920B404B1B1F58
:100AD0009A5CB1FBF2F1016110BD0360DAE70360DB
:100AE000D8E7516801F47011536803F4803302248D
:100AF00004EB914133B153689B0307D5354B594300
:100B00000160C7E7334B59430160C3E72F4B59439B
:100B10000160BFE7284A002903D0516901435161B0
:100B200070475169814351617047234A002903D0BE
:100B30009169014391617047916981439161704767
:100B40001D4A002903D0D1690143D1617047D169A1
:100B50008143D1617047184A002903D0D16801430D
:100B6000D1607047D1688143D1607047124A002933
:100B700003D011690143116170471169814311610B
:100B8000704711494039086070470E49C864704782
:100B90000949C87170470848416A41F08071416253
:100BA000704701460020044A92680A4200D00120A2
:100BB0007047014988727047001002400000FFF83A
:100BC000FFFFF6FE000042428004424200127A001B
:100BD0001800002000093D0010B5E14988420AD103
:100BE00001218C032046FFF7B6FF2046BDE81040E8
:100BF0000021FFF7B0BFDB4988420AD101214C0434
:100C00002046FFF7B3FF2046BDE810400021FFF764
:100C1000ADBFD54988420AD101218C042046FFF797
:100C2000A5FF2046BDE810400021FFF79FBFCF4938
:100C300088420AD10121CC042046FFF797FF2046C5
:100C4000BDE810400021FFF791BFC94988420AD191
:100C500001210C052046FFF789FF2046BDE8104022
:100C60000021FFF783BF10BD30B585B004460D46A7
:100C7000208A4CF6FF710840E98801432182A0894F
:100C80004EF6F3110840A9882A8911436A89024364
:100C90001143A181A08A4FF6FF410840A989014371
:100CA000A1826846FFF7E9FEAD48844201D103986E
:100CB00000E00298A189090408D500EBC00101EB0E
:100CC000001029684900B0FBF1F007E000EBC0011B
:100CD00001EB001029688900B0FBF1F06422B0FB41
:100CE000F2F109010B096FF018056B4300EB83006B
:100CF000A3891D044FF0320307D503EBC000B0FBFE
:100D0000F2F000F00700084306E003EB0010B0FB30
:100D1000F2F000F00F000843208105B030BD4FF421
:100D20001651016000218180C18001810C22428125
:100D30008181704710B5038A4FF2FF0213400A8881
:100D40004C8822438C88C9880C4322431A43028270
:100D500010BD0021018041808180C1807047002941
:100D600004D0818941F4005181817047818921F447
:100D700000518181704710B540F66A13C1F34213E8
:100D800001F01F040121A140012B07D0022B07D045
:100D900014303AB102680A43026010BD0C30F8E723
:100DA0001030F6E702688A43026010BD002A03D0C3
:100DB000828A0A4382827047828A8A43828270478B
:100DC000028A22F00F020282028A0A4302827047DC
:100DD000828922F40062828182890A43828170477B
:100DE000002904D0818941F0020181817047818905
:100DF00021F0020181817047028A22F020020282E2
:100E0000028A0A4302827047002904D0018A41F411
:100E1000804101827047018A21F48041018270473C
:100E2000C1F30801818070478088C0F308007047D3
:100E3000818941F0010181817047028BD2B2028326
:100E4000028B42EA012101837047028B02F47F4248
:100E50000283028B0A4302837047002904D0818AEF
:100E600041F0200181827047818A21F02001818236
:100E70007047002904D0818A41F0100181827047B7
:100E8000818A21F0100181827047002904D0818A73
:100E900041F0080181827047818A21F00801818236
:100EA0007047002904D0818941F400418181704755
:100EB0008189C1F30E0181817047002904D0818AA4
:100EC00041F4006181827047818A21F4006181824E
:100ED0007047828A22F004028282828A0A438282D6
:100EE0007047002904D0818A41F002018182704755
:100EF000818A21F002018182704702460020128817
:100F00000A4200D0012070478A05C943018070471A
:100F100070B5002440F66A12C1F3421301F01F05B8
:100F2000012606FA05F2012B0CD0022B0DD0838A84
:100F30001340090A8E40008830400BB100B10124F3
:100F4000204670BD83891340F3E7038A1340F0E71E
:100F500040F66A120A0A01219140C9430180704794
:100F6000003801400044004000480040004C004070
:100F700000500040384900200860091D0860091D24
:100F80000860091D0860344934481431086070470E
:100F900030B5314A83790168002B2AD013688B431E
:100FA0001360111D0B680468A3430B6001791144A1
:100FB0000B68046823430B60274C083421680368DE
:100FC00099432160231D19680568A9431960417977
:100FD000102905D011440A68006802430A6030BD38
:100FE0002168026811432160196800680143196093
:100FF00030BD0079104402688A43026030BD002190
:10100000016001710C2242718171704712491031E7
:101010000A6802430A607047014600200E4A1432F3
:1010200012680A4200D0012070470B491431086051
:10103000704701460020084A12680A40064B1433E4
:101040001B680B4202D0002A00D0012070470249E1
:10105000143108607047000000040140FFFF0F00DA
:1010600010B5DB4988420AD1441501212046FFF71B
:1010700072FD2046BDE810400021FFF76CBDD54948
:1010800088420AD1041501212046FFF764FD20465D
:10109000BDE810400021FFF75EBDCF4988420AD16C
:1010A0000121CC032046FFF756FD2046BDE8104045
:1010B0000021FFF750BD10BD10B54268C74B1A4064
:1010C0000C790B6842EA0422134343608268C44BE4
:1010D0001A40D1E9024323434C7942EA44021343C4
:1010E0008360C26A22F47002097C491EC9B242EAD6
:1010F0000151C16210BD0021016001714171816027
:10110000C160012101747047002904D0816841F059
:10111000010181607047816821F0010181607047A1
:10112000002904D0816841F4807181607047816832
:1011300021F4807181607047C9B2002A03D04268EF
:101140000A434260704742688A4342607047816840
:1011500041F0080181607047014600208968090755
:1011600000D501207047816841F00401816070471B
:10117000014600208968490700D5012070470029F1
:1011800004D0816841F4A00181607047816821F436
:10119000A00181607047014600208968490200D59E
:1011A00001207047426822F46042491E42EA413100
:1011B00041607047002904D0416841F400614160FA
:1011C0007047416821F400614160704770B507269F
:1011D00009290AD9C568A1F10A0404EB4404A64010
:1011E000B543A3401D43C56007E0056901EB410419
:1011F000A640B543A3401D4305611F23072A09D21A
:10120000446B521E02EB820293409C4391400C437C
:10121000446370BD0D2A09D2046BD21F02EB820217
:1012200093409C4391400C43046370BDC46A0D3AE3
:1012300002EB820293409C4391400C43C46270BD18
:10124000002904D0816841F4801181607047816871
:1012500021F4801181607047C06C80B270475C4897
:101260004C3000687047002904D0416841F4806127
:1012700041607047416821F48061416070470029F6
:1012800004D0416841F4805141607047416821F4C5
:10129000805141607047826822F4E0420A438260D4
:1012A0007047002904D0816841F400418160704793
:1012B000816821F4004181607047002904D0816871
:1012C00041F4021181607047816821F4021181604C
:1012D0007047014600208968890200D501207047C7
:1012E00070B5072609290AD9C568A1F10A0404EBDB
:1012F0004404A640B543A3401D43C56007E005690B
:1013000001EB4104A640B543A3401D430561836B37
:10131000C3F30154121B921C02EB82021F2494405F
:10132000A34391400B43836370BD826B22F4401250
:10133000491E42EA01518163704708B50090009848
:10134000084400900098026008BD08B5009000981D
:101350000844283000900098006880B208BD4268B8
:10136000204B1A400A4342607047416282627047D4
:10137000426822F01F020A43426070471449083154
:10138000002804D0086840F400000860704708682E
:1013900020F40000086070470246002012680A42EC
:1013A00000D001207047C9430160704710B5024664
:1013B00000200B0A5468C9B20C401168194202D0CF
:1013C000002C00D0012010BD090AC94301607047FC
:1013D0000024014000280140003C0140FFFEF0FFD6
:1013E000FDF7F1FFFFFD3FFF4FF0E020016921F025
:1013F0000401016122480921017042F22831418033
:1014000070471F49097848434FF0E02148610023A5
:101410008B61012008610869C20701D0C003FAD5B9
:101420000B618B617047002810D0154949884843EB
:101430004FF0E021486100238B61012008610869B9
:10144000C20701D0C003FAD50B618B61704770B53C
:101450004FF4FA75B0FBF5F1CCB2B0FBF5F105FB3A
:10146000110604E02846FFF7DEFF641EE4B2002CFC
:10147000F8D1002E03D03046BDE87040D3E770BDF0
:101480002800002070B586B0044601210420FFF733
:101490004CFB01218803FFF748FB18218DF817103A
:1014A0004FF40071ADF8141003258DF816506A4EF4
:1014B00005A93046FFF733F904218DF8171009020A
:1014C000ADF814108DF8165005A93046FFF727F92E
:1014D00001940024ADF810400C20ADF80E00ADF8DA
:1014E0000C40ADF80A40ADF808405C4D01A9284613
:1014F000FFF7BAFB01212846FFF731FC012240F239
:1015000025512846FFF737FC25208DF800000120E3
:101510008DF803008DF8014002208DF80200684626
:10152000FFF73DF806B070BDF0B587B00546012164
:101530000420FFF7FAFA01214804FFF701FB182104
:101540008DF81B100426ADF8186003248DF81A409E
:10155000414F06A93846FFF7E2F88DF81B600821D5
:10156000ADF818108DF81A4006A93846FFF7D7F8DD
:1015700002950024ADF814400C20ADF81200ADF82F
:101580001040ADF80E40ADF80C40354D02A928468C
:10159000FFF76AFB01212846FFF7E1FB012240F239
:1015A00025512846FFF7E7FB26208DF8040001208F
:1015B0008DF807008DF805408DF8064001A8FEF76C
:1015C000EEFF07B0F0BD2DE9F04107460D46164687
:1015D00000240CE015F8011B3846FFF721FC4021E0
:1015E0003846FFF78AFC0028F9D0641CA4B2B44244
:1015F000F0D3BDE8F0810FB430B5CBB0054601ACF7
:1016000050AB4FF4947101A84F9A05F011F80020E7
:10161000009009E0641C2846FFF702FC40212846A0
:10162000FFF76BFC0028F9D021780029F2D14BB0EC
:1016300030BC5DF814FB10B5084C40F22551204633
:10164000FFF766FC002805D02046BDE810402021A9
:10165000FFF75ABC10BD00000008014000380140EF
:101660000044004010B5044684F0010210210D48EA
:10167000FFF7C8F80C48047010BD08B5012104201C
:10168000FFF753FA10208DF80300ADF80000032097
:101690008DF8020069460348FFF741F80020FFF784
:1016A000E1FF08BD000801402C0000207FB50121AA
:1016B0000420FFF73AFA01210846FFF736FA4820DE
:1016C0008DF80F000224ADF80C4003208DF80E00B9
:1016D00003A92148FFF723F801210020FFF7DBF8D9
:1016E000019400208DF808000C208DF809000125D8
:1016F0008DF80A5001A8FFF74BFC07208DF8000079
:101700008DF801408DF802408DF803506846FEF7D1
:1017100046FF7FBD10B50A20FFF785FE02210E4867
:10172000FFF758F878B90D480078012810D001204B
:10173000FFF798FF012000F013F86420FFF773FE15
:10174000002000F00DF8BDE810400220FFF77FBC3C
:101750000020FFF787FFEDE7000801402C00002084
:10176000104A002803D020211046FFF747B8202157
:101770001046FFF745B808B501210420FFF7D5F959
:1017800010208DF803002020ADF8000003208DF814
:10179000020069460348FEF7C2FF0020FFF7E0FFA2
:1017A00008BD00000008014008B54FF48070ADF896
:1017B000000003208DF8020010208DF80300694618
:1017C000FE48FEF7ACFF08BD10B5FFF7EDFFFC4C7F
:1017D0000020206060600420FFF713FE01202060DD
:1017E0006060BDE810400420FFF70BBE08B54FF461
:1017F0008070ADF8000003208DF8020048208DF8BD
:1018000003006946ED48FEF78AFF08BD70B5002465
:10181000FFF7ECFFEB4D0126C5F8A0610120FFF7B3
:10182000F0FDC5F89C610120FFF7EBFD07E0641CAB
:10183000E4B2FA2C03D9FFF7C7FF012070BDD5F839
:1018400020010028F3D1C5F89C0170BD2DE9F041BD
:101850000546FFF7A9FFDB4E4FF00008C6F89C8154
:1018600000240127E809C6F8A0016806050E022039
:10187000FFF7C7FDC6F89C710220FFF7C2FDC6F84E
:101880009C810220FFF7BDFD641CE4B2082CE9D363
:10189000BDE8F08170B5FFF787FFC94C012060609B
:1018A00020600420FFF7ADFD002565600420FFF7F0
:1018B000A8FD256070BD70B505460C46FFF7EAFF30
:1018C000AE20FFF7C3FFFFF7A1FF58B92846FFF787
:1018D000BDFFFFF79BFF28B92046FFF7B7FFFFF7D3
:1018E00095FF18B1FFF770FF002070BDFFF76CFF88
:1018F000012070BD70B5B24C00252560FFF754FF84
:10190000012666600220FFF77CFD26600220FFF7BB
:1019100078FD256070BD70B5A94C00252560FFF7E6
:1019200043FF65600220FFF76CFD0120206002206C
:10193000FFF767FD256070BD2DE9F0478146002463
:10194000FFF754FF00259F4E00274FF00108C6F80F
:101950009C710220FFF755FDC6F89C816006040EBD
:10196000D6F8200108B1641CE4B20120FFF749FD5C
:101970006D1CEDB2082DEAD3B9F1000F04D0FFF7CA
:10198000CAFF2046BDE8F087FFF7B4FFF9E710B5BE
:101990000446FFF77FFFAE20FFF758FFFFF736FF43
:1019A00068B92046FFF752FFFFF730FF38B9FFF75D
:1019B00071FFAF20FFF74AFFFFF728FF18B1FFF7CD
:1019C00003FF002010BD0020FFF7B6FF0446FFF71D
:1019D00091FFFFF7F9FE204610BD2DE9F0410746C3
:1019E0000E4614460025FFF755FFAE20FFF72EFFE9
:1019F000FFF70CFFC8BB3846FFF728FFFFF706FFCD
:101A000098BBFFF747FFAF20FFF720FFFFF7FEFE71
:101A100058BB26E00020FFF78FFF0746FFF77BFF4C
:101A20000020FFF789FF8046FFF775FF48EA07208F
:101A300026F825000020FFF77FFF8046FFF76BFFA9
:101A40000020FFF779FF0746012C11D0FFF763FF55
:101A500006EB850147EA08204880641EE4B26D1C4D
:101A6000EDB2002CD6D1FFF7AFFEBDE8F041ABE6FA
:101A7000FFF740FFECE770B505460C460020FFF786
:101A800086FF0120FFF783FFFFF704FFAE20FFF77B
:101A9000DDFEFFF7BBFE68B92846FFF7D7FEFFF76C
:101AA000B5FE38B9FFF7F6FEAF20FFF7CFFEFFF720
:101AB000ADFE48B1FFF788FE002060712071E07034
:101AC000A0706070207070BD0120FFF735FF20709E
:101AD0000120FFF731FF60700120FFF72DFFA0709C
:101AE0000120FFF729FFE0700120FFF725FF20719B
:101AF0000020FFF721FF6071BDE8704064E610B57B
:101B000040210920FFF7D7FE4021BDE81040092001
:101B1000D1E608B501210820FFF707F84FF4C0709F
:101B2000ADF8000010208DF8030003208DF80200AE
:101B300069462248FEF7F3FD21480121016041601A
:101B400008BD08B501210820FEF7EFFF4FF4007033
:101B5000ADF8000048208DF8030069461748FEF7ED
:101B6000DEFDFFF7D6FFFFF7CAFFC0210220FFF717
:101B7000A2FE00210320FFF79EFE00210420FFF7B4
:101B80009AFE00210520FFF796FE00210620FFF7B0
:101B900092FE0F210820FFF78EFE03210920FFF798
:101BA0008AFE27210A20FFF786FE47210C20FFF737
:101BB00082FE47210D20FFF77EFE05E0000C01406C
:101BC0009C812142008021427F211020FFF773FE7B
:101BD00010213020FFF76FFE08BD70B506460C4699
:101BE0001546FFF757FE3046FFF730FEFFF70EFEB3
:101BF0002046FFF72BFEFFF709FE2846FFF726FEDB
:101C0000FFF704FEFFF7E0FDBDE870400A20FFF794
:101C10001EBC0A460146AE20DFE770B504460E46FC
:101C20001546FFF737FE2046FFF710FEFFF7EEFDE3
:101C30003046FFF70BFEFFF7E9FDFFF72BFE44F000
:101C40000100FFF703FEFFF7E1FD0020FFF774FE40
:101C50002870BDE87040B7E50A460146AE20DCE7D3
:101C60002DE9F04104460E4615461F46FFF712FEC9
:101C70002046FFF7EBFDFFF7C9FD3046FFF7E6FD15
:101C8000FFF7C4FD44F00100FFF7E0FDFFF7BEFDE4
:101C900000247E1E05E00120FFF74EFE2855641C3F
:101CA000E4B2B442F7DB0020FFF746FEE91901F881
:101CB000010CFFF789FDBDE8F0410A20FFF7C7BB23
:101CC0003EB504460D4600202060286002A9FFF7BB
:101CD000C3FF02A90120FFF7BFFF06236A460721C1
:101CE000AE20FFF7BDFF9DF8000000042168084406
:101CF00020609DF801100902084420609DF8021040
:101D0000084420609DF80300000429680844286006
:101D10009DF804100902084428609DF80510084445
:101D200028602068C0F3110020602868C0F311000B
:101D300028603EBD70B504460D461646FFF7AAFD65
:101D40002046FFF783FDFFF761FD002406E0285DD4
:101D5000FFF77CFDFFF75AFD641CE4B2B442F6D3F2
:101D6000FFF732FDBDE870400A20FFF770BB30B5C9
:101D7000012310E050F823501A4602E040F82240B8
:101D8000521E002A04DD541E50F82440AC42F5DCFB
:101D900040F822505B1C8B42ECDB30BDF0B50124D7
:101DA00014E051F82460234602E041F823505B1E02
:101DB000002B08DD5D1E50F8267051F8255050F8B4
:101DC00025C06745F1DC41F82360641C9442E8DBE0
:101DD000F0BD2DE9F04305460C4610461E46294647
:101DE0002268FFF7DBFF4FF0FF3840461BE00F464D
:101DF000411C2160C6F1000C12E055F82130421C54
:101E000018D055F820209A1AB24201DC624506DA51
:101E1000226802F10109C4F8009045F82230491CFB
:101E2000B942EADB401C21688142E0DC2846BDE87B
:101E3000F0439CE74246E6E72DE9F043DDF81C80DD
:101E4000012400250D60A3F1010C23E052F8247059
:101E500047451EDD651E52F82550AF4219DD0125AC
:101E600000E06D1C66199E4203DA52F826904F4539
:101E7000F7D0254452F82550AF4208DD0D680F2DEC
:101E800005DA6F1C0F6040F82540741C02E03446F0
:101E900000E0641C6445D9DBBDE8F0832DE9F8411E
:101EA0000C46DDE9088507990646174600913A4633
:101EB00021463046FFF7C0FF43463A4621463046AA
:101EC000FFF787FF2068A84200DB28462060BDE8B6
:101ED000F8812DE9FF4FB7B08346DDF81481469EA7
:101EE0000D4617460021002003E05BF82020114436
:101EF000401CA842F9DBB1FBF5F20020DC4905E00B
:101F00005BF820309B1A41F82030401CA842F7DBD8
:101F10000020421C51F8204051F8222000F1030C0F
:101F20002244841C51F82CC051F8244064442244BB
:101F3000D41702EB9472921041F82020401CB0F5A7
:101F4000F87FE6DB0020DFF82C934FF4F774C849E4
:101F5000421C51F8222051F82030D21A49F8202092
:101F6000401CA042F3DD0020421C59F8201059F813
:101F70002220114401EBD171491049F82010401C76
:101F8000A042F1DB0021DFF8F0A20022084601F1B7
:101F9000050C08E0A0EB010E59F820303AF81EE0DD
:101FA00003FB1E22401C6045F4DB40F27A4092FBAA
:101FB000F0F049F82100491CB1F5F47FE5DD00227D
:101FC000002059F82010002900DC49420A44401C36
:101FD000A042F6DD40F2EF1392FBF3F00521082258
:101FE000CDE901210090A34A35A908A8FFF756FFC3
:101FF0000021359A08AB022A19DB012009E0A0F183
:10200000010C53F8209053F82CC0A9EB0C0C614440
:10201000401C9042F3DB521E91FBF2F041F27071D2
:1020200091FBF0F0C8F800000120307004E0934804
:10203000C8F80000002030700020DDF8D4A006E0D1
:1020400053F8201026AA891C42F82010401C504545
:10205000F6DB0020DFF82882DFF8149208E05BF856
:10206000201049F8201057F8201048F82010401C84
:10207000A842F4DB002300210DF15C0E1DE00122DB
:1020800026A850F821004FF0807C00F1050BA345F5
:1020900012DC451F002D0FDD401F09E059F82050CC
:1020A000654504DA02B10022AC464EF82100401C1E
:1020B0005845F3DB02B95B1C491C5145DFDB022BA1
:1020C00008DA3A996D4808604499002008703BB0DE
:1020D000BDE8F08F00204FF4F87A421C59F8201028
:1020E00059F822400D19841CC11C59F824C059F814
:1020F00021B0DC4465444FEAE57C05EB9C75AD10EE
:1021000049F8205058F8205058F8222058F8244018
:1021100058F821102A4421441144CA1701EB927146
:10212000891048F82010401C5045D6DB00250020BF
:1021300003AA002142F82010401C0528F8DB0020EB
:102140004FF4FA720CE017A951F82010914206DD05
:102150003A994A480860449900200870B7E7401C43
:102160009842F0DB00205B1E369354E04FF07F4135
:102170000A4617AC431C54F8233054F82040A3EB14
:10218000040CBCF10A0F45DDA2460DE059F82AB057
:10219000934501DD5A46574658F82AB08B4501DD74
:1021A000594656460AF1010A5345EFDC58F823B068
:1021B00058F824A0A6EB040EABEB0A0B0BFB0EFBAE
:1021C0009BFBFCFBDA4458F826B0ABEB0A0A59F843
:1021D00023B059F824303C1BABEB030B0BFB04FB87
:1021E0009BFBFCF4234459F82640E31A0AFB02FA4D
:1021F0004FEAEA124B43D91100290BDD052D09DA0C
:1022000042B102EB8202920092FBF1F203A941F883
:1022100025206D1C401C36998842A7DB294603A85F
:10222000FFF7A5FD05EBD570401001280ADD03A9D5
:10223000421E51F8200051F82220104400EBD070CB
:10224000401002E003A951F82000C11EB52908D2B0
:1022500009493E31085C3A990860449901200870A8
:1022600035E73A99054808604499002008702EE740
:10227000B80A0020F8020020AEA1000819FCFFFFF8
:102280008812002010B586B001214FF40170FEF7CE
:102290004CFC0220ADF8140000248DF8174005A96D
:1022A0002048FEF73CFA00948DF804408DF8054074
:1022B0004FF460200290039401208DF810001A4C16
:1022C00069462046FEF7F8FE01212046FEF71CFF76
:1022D0002046FEF73CFF2046FEF73EFF0028FAD1DD
:1022E0002046FEF740FF2046FEF742FF0028FAD1C5
:1022F00006B010BD10B50C4C012207231146204634
:10230000FEF764FF01212046FEF739FF0221204637
:10231000FFF742F80028F9D02046BDE81040FEF74C
:102320009BBF000000080140002401401CB5FB4C8D
:10233000A278002A04D0FAA1684604F093F903E0D9
:10234000F8A1684604F08EF910236A460021362071
:1023500004F00EF8E27822B1F1A1684604F082F9A7
:1023600003E0F0A1684604F07DF910236A460321DA
:10237000362003F0FDFF6289EBA1684604F072F994
:1023800010236A460621362003F0F2FF1CBD10B56B
:1023900003F031FF00211023E4A2084603F0E8FF18
:1023A0001023E3A20321002003F0E2FF1023062103
:1023B000BDE81040E0A2002003F0DABF10B54FF4F2
:1023C000A060FEF7E7F8FFF70FF84FF4E13420467E
:1023D000FFF758F82046FFF7A7F8FFF767F9FFF770
:1023E0004CF9FFF7C8F904F033F8FFF7AAFBFFF741
:1023F00049FF43F2390004F035FC03F0FCFE0021F4
:102400001023CFA2084603F0B3FFBDE810404FF4FD
:102410007A70FFF71CB80EB50024FFF7CFFF02F06B
:1024200095F903F0E8FE00211023CAA2084603F044
:102430009FFF4FF4FA7902E04846FEF7F4FFCBA184
:10244000CCA002F030F90028F6D11023D5A2042147
:1024500003F08EFF4846FEF7E6FF03F0CCFE0021B6
:102460001023D7A2084603F083FF06E0BFA1C1A056
:1024700002F019F94846FEF7D6FF00F06BFB002882
:10248000F4D100F054FEFFF782FFA44DC5F814907C
:10249000D048286200276F62EF62CF4E05F1300A04
:1024A000A6F5FA682DE09D4907203031FFF7E3FAE1
:1024B0009AF800009AF801108007800B40EA01208A
:1024C0009AF802100843E96A46F821009AF80320B6
:1024D0009AF804309207920B42EA03229AF80530E8
:1024E0001A4348F82120296A884200D22862696A82
:1024F000884200D968620A20FEF7A9FFE86A401CFA
:10250000E8626969E86A8842CDDBE86A401E56F8ED
:102510002000A8628148C01D00F11501421ECDE9CE
:1025200000210290AC4A0B1FA2F5FA606969FFF71F
:10253000D0FC3220E862E96AA1F1320256F821307B
:1025400046F8223058F8213048F8223056F8212039
:102550002B6A9A4200D22A626B6A9A4200D96A6256
:10256000491CE9624945E6DB4FF4E170E86241F25B
:10257000883BE96A491E56F82110A962674907207D
:102580003031FFF778FA9AF800109AF8012089079D
:10259000890B41EA02219AF802201143EA6A46F8BF
:1025A00022109AF803309AF804C09B079B0B43EA69
:1025B0000C239AF805C043EA0C0348F82230594529
:1025C00004D95B4502D90121297100E02F71022055
:1025D000FEF73DFFE86A401CE8624845C9DB4F480A
:1025E000AB46C01D00F11501421ECDE9002102904D
:1025F000794A0B1FA2F5FA606969FFF76AFCFFF7D9
:1026000079FEABF80A00BBF80810884213D9012004
:10261000FFF7A6F89BF80500C00708D00020FFF7D9
:1026200021F89BF80510491C8BF805100BE00120E0
:10263000FFF718F8F5E70020FFF792F80020FFF702
:1026400011F88BF805709BF8040098B39BF807000D
:10265000012808D1DBF81C00282804DDB42802DAA0
:102660008BF8000001E08BF800709BF80600012851
:1026700008D1DBF81800502804DD652802DA8BF851
:10268000010001E08BF801709BF8000010B19BF88D
:10269000011021B19BF80110B9B160B115E0FDF74F
:1026A000EFFD052190FBF1F201FB12005F308BF88A
:1026B00001000AE0C3E0FDF7E3FD1E2190FBF1F20B
:1026C00001FB120046308BF800009BF8020018B3A3
:1026D0009BF80010C0EBC00001EB410108440A2147
:1026E000B0FBF1F08BF802009BF8010000EB400218
:1026F0009BF80300C0EBC0001044B0FBF1F08BF876
:102700000300DBF80C0040B19BF80220C11C8A4298
:1027100077DD8BF8021079E060E068E0300000209F
:1027200025336400202030002534640048523A00EC
:1027300053704F323A0000004D51333A0000000010
:10274000486172647761726520696E6974204F4BCD
:1027500000000000436F6E6E656374204D51545449
:1027600073205365727665722E2E2E00434F4E4EA7
:102770004543540041542B43495053544152543D16
:1027800022544350222C226D717474732E68656339
:102790006C6F7564732E636F6D222C313838330D76
:1027A0000A000000436F6E6E656374204D515454EF
:1027B0002053657276657220537563636573730089
:1027C000446576696365206C6F67696E202E2E2ED6
:1027D00000000000FFFF0300282200209BF80000FB
:1027E0008BF802009BF801008BF8030089E79BF847
:1027F0000200CBF80C009BF80300CBF8100026E099
:10280000FFE7C01E824201DA8BF80200DBF81010ED
:102810009BF803200846C91C8A4202DD8BF803108E
:1028200004E0C01E824201DA8BF803009BF802002C
:10283000CBF80C009BF80300CBF8100007E08BF8F6
:1028400000708BF801708BF802708BF80370641CB9
:10285000A4B2642C04D300F007FC002401F00AFFAA
:10286000002001F059FF10B100F08DFC01E001F0F3
:1028700001FFFFF75BFD0A20FEF7E9FD59E60000C6
:102880002DE9F0438BB005460024284604F05AFA9F
:10289000C7B20DB11C2F03D201200BB0BDE8F083ED
:1028A0004FF000090DF1040806E0285D08F8040067
:1028B00005F80490641CE4B2BC42F6D308F8049016
:1028C0000026002418E018F806002B281AD008DC8F
:1028D00020281ED0232838D025282FD0262806D1FE
:1028E0003AE02F281CD03D283DD03F281FD0285546
:1028F000641CE4B2761CF6B2BE42E4D305F8049040
:102900000020CAE72819FDA104F086FAE41CE4B20D
:10291000F0E72819FAA104F07FFAE41CE4B2E9E731
:102920002819F8A104F078FAE41CE4B2E2E72819C7
:10293000F5A104F071FAE41CE4B2DBE72819F3A175
:1029400004F06AFAE41CE4B2D4E72819F0A104F018
:1029500063FAE41CE4B2CDE72819EEA104F05CFAB6
:10296000E41CE4B2C6E72819EBA104F055FAE41C14
:10297000E4B2BFE72DE9F04FC9B00546DDF84CB130
:10298000DDF85491DDF848810C4616461F464FF09D
:10299000000ACDF820A1002D0AD04CB1DF488642B4
:1029A00006D32FB1BBF1000F02D05498782803D280
:1029B000012049B0BDE8F08F402118A804F0D1FAF9
:1029C000384604F0BFF900903B4648AA402118A8B9
:1029D00000F050FF482106A804F0C3FAB9F1000F37
:1029E00009D0CFA08DE831003346CFA2482106A8F8
:1029F00003F04EFE09E0CAA08DE811013346D0A2D3
:102A00004821039506A803F043FE402128A804F0BE
:102A1000A8FA06A804F096F9074618A804F092F957
:102A2000014628A800903B4606AA18A800F019FE07
:102A3000CDF820A1402138A804F093FA28A804F08A
:102A400081F9009028AB48AA402138A800F08EFEFA
:102A500038A8FFF715FF38A8B9F1000F0BD0B0A1C7
:102A6000CDE90210CDE900462B46BDA25846549947
:102A700003F00EFE0BE0CDE90186A9A10094CDE99B
:102A800003102B46C44A5846549903F001FE002017
:102A90008FE7F0B5ABB001240F26FF2003F064FDF3
:102AA000054615B14FF4FA7705E020462BB0F0BD8E
:102AB0003846FEF7B8FCB9A1BAA001F0F4FD002831
:102AC000F6D10120902107AA0027CDE90210CDE917
:102AD0000072BEA3C94ACAA1CCA0FFF74BFFCEA08B
:102AE0000F21CDE9001007ABCD4A06F1F0012846D1
:102AF00003F0CEFD284604F025F981B2284601F006
:102B0000F3FDFA2001F008FE10B1C6A104F0E4F8CC
:102B1000B8B10297C64E02A9CDE9001603ABA6F1E3
:102B20001002C44903F06AFF04280AD10298CDE9D3
:102B3000000603ABA6F11002BFA1C748FEF75BFD7C
:102B40000024284603F03FFDC4A1C5A001F0ABFD61
:102B50002046ABE770B5B2B000242E942F94309489
:102B600031940125A02006AEABA1CDE90016CDE938
:102B7000020496A3A14AA2A1A4A0FFF7FBFE00961F
:102B8000B54E9FA3A4A2BAA13046FEF734FD2EA8ED
:102B9000CDE904400120CDE900040302029403942E
:102BA0009DA206A996A000F0A8FF30B1BCA13046B6
:102BB000FEF721FD32B0284670BD2F9881B22E98C5
:102BC00001F092FDFA2001F0A7FD0446002C31D05F
:102BD000204600F063FF02282CD1204601F0D4F8F3
:102BE000062823D2DFE800F003090E13181DB5A153
:102BF0003046FEF700FD00251CE0B9A13046FEF787
:102C0000FAFC17E0C3A13046FEF7F5FC12E0CFA1B5
:102C10003046FEF7F0FC0DE0DB493046FEF7EBFCFA
:102C200008E0DA493046FEF7E6FC03E0D8A130467A
:102C3000FEF7E1FC2EA800F0F2FEBBE710B58CB069
:102C400004463021684604F08CF9DDA1204604F0EA
:102C500055F83021684604F084F9DF4968460A884F
:102C6000DEA103F0FFFC6946204604F0D5F83021D0
:102C7000684604F076F9DE4968460A78DDA103F07B
:102C8000F1FC6946204604F0C7F83021684604F09C
:102C900068F9DD4968460A78DCA103F0E3FC69467F
:102CA000204604F0B9F83021684604F05AF9DC49AE
:102CB00068460A88DBA103F0D5FC6946204604F08B
:102CC000ABF83021684604F04CF9DC49087808B1CB
:102CD000DBA200E0DCA2DEA1684603F0C3FC69468B
:102CE000204604F099F8DFA1204604F095F820462C
:102CF00004F028F80CB0C0B210BD0000253242002C
:102D00002532300025324600253346002532350075
:102D10002532330025323600253344009554415D79
:102D2000736861310000000025640A25730A70721F
:102D30006F64756374732F25730A25730000000098
:102D400025640A25730A70726F64756374732F2586
:102D5000732F646576696365732F25730A25730085
:102D600076657273696F6E3D2573267265733D706B
:102D7000726F6475637473252532462573266574F6
:102D80003D2564266D6574686F643D2573267369FF
:102D9000676E3D2573000000D4AD0008434F4E4ED2
:102DA0004543540041542B43495053544152543DE0
:102DB00022544350222C223138332E3233302E34D9
:102DC000302E3333222C38300D0A00006332316F3D
:102DD00059325A614D54564D536D7079644764535E
:102DE0005A4446735345647356444E51636B4E4C7C
:102DF0004F477847576D593D0000000000CF9D7444
:102E00007873324E38697366617000003230313841
:102E10002D31302D333100007465737400000000D3
:102E20001CAE00086465766963655F696400000034
:102E3000082A002088AD000863726561746520640B
:102E400065766963653A2025732C2025732C20252F
:102E5000642C2025730D0A00003801404F4B000000
:102E600041542B434950434C4F53450D0A00000039
:102E70004F6E654E45545F4465764C696E6B0D0A26
:102E80004E414D453A2025732C0950524F49443A42
:102E90002025732C094B45593A25730D0A00000073
:102EA0005741524E3A094D5154545F5061636B651E
:102EB00074436F6E6E656374204661696C65640D62
:102EC0000A000000546970733A09EFBFBDEFBFBD3F
:102ED000EFBFBDD3B3C9B9EFBFBD0D0A00000000FD
:102EE0005741524E3A09EFBFBDEFBFBDEFBFBDEF37
:102EF000BFBDCAA7EFBFBDDCA3EFBFBDD0ADEFBF65
:102F0000BDEFBFBDEFBFBDEFBFBDEFBFBD5C720A80
:102F1000000000005741524E3A09EFBFBDEFBFBD60
:102F2000EFBFBDEFBFBDCAA7EFBFBDDCA3EFBFBD05
:102F3000EFBFBDC7B7EFBFBDEFBFBDEFBFBD636C98
:102F400069656E7469640D0A000000005741524EB5
:102F50003A09EFBFBDEFBFBDEFBFBDEFBFBDCAA711
:102F6000EFBFBDDCA3EFBFBDEFBFBDEFBFBDEFBF88
:102F7000BDEFBFBDEFBFBDEFBFBDCAA7EFBFBDEF88
:102F8000BFBD0D0A000000003CAD0008ECAC00081D
:102F90004552523A09EFBFBDEFBFBDEFBFBDEFBF16
:102FA000BDCAA7EFBFBDDCA3EFBFBDCEB4D6AAEFAD
:102FB000BFBDEFBFBDEFBFBDEFBFBD0D0A0000003D
:102FC0007B226964223A22313233222C22706172D0
:102FD000616D73223A7B00003A000020226D71334C
:102FE000223A7B2276616C7565223A25647D2C003D
:102FF0003200002022786C223A7B2276616C756563
:10300000223A25647D2C00003300002022787922AA
:103010003A7B2276616C7565223A25647D2C00002E
:1030200038000020226A6A797A223A7B2276616C23
:103030007565223A25647D2C0000000035000020D3
:10304000747275650000000066616C7365000000B5
:1030500022626A223A7B2276616C7565223A257378
:103060007D0000007D7D000030B5C5B0002041909E
:1030700042904390449000244FF4807101A803F0E3
:1030800070FF01A8FFF7DAFD054628000ED041A821
:1030900000232A46AFF280210090AFF29C2000F07E
:1030A00047FF28B17BA18348FEF7A5FA45B030BDA4
:1030B00001A807E0429B025D591C42914199CA5404
:1030C000641C24B2AC42F5DB429881B2419801F015
:1030D0000BFB41A800F0A3FCE8E770B588B00646FA
:1030E0000D46002404940594069407942B4632461A
:1030F00071A17048FEF77FFA284603F023FE0121F4
:103100000094CDE90141034604A803902A463146C4
:103110000A2000F046FE002807D1059881B20498E5
:1031200001F0E2FA04A800F07AFC08B070BD00B526
:1031300095B00020119012901390149003A8029063
:10314000AFF22C30AFF24833009063A2382103A8CD
:1031500003F09EFA03AA68A15648FEF74CFA11A89C
:103160000090012302AA0021142000F0CDFF0028C6
:1031700007D1129881B2119801F0B6FA11A800F0A7
:103180004EFC15B000BD2DE9F04389B00646002085
:10319000089007900690059004900024304600F0B7
:1031A0007DFC0546434F032D15D0042D5AD0092D23
:1031B00062D0641E01F05EFA641C09D00F2D01D0AC
:1031C000032D05D1079803F0FEF9089803F0FBF9E9
:1031D00009B0BDE8F08304A905AACDE900214C4857
:1031E000029008AB06AA07A9304601F083F804460E
:1031F000200037D1BDF814000899CDE90010BDF8C2
:10320000183044A13846079AFEF7F5F9089802F0FD
:1032100002F980464EA1404602F084FC81464EA150
:10322000484602F07FFC28B1C06801280BD000207E
:10323000FEF718FA49A1484602F074FC78B1C1685B
:10324000032904D00BE00120FEF70CFAF2E7808A94
:1032500082B24448028044A13846FEF7CCF9404689
:1032600001F0B1FB304601F04AF90028A2D146A195
:103270003846FEF7C0F99DE7304600F0B3FF20B1B5
:1032800049A13846FEF7B7F994E74EA13846FEF754
:10329000B2F98FE75741524E3A094544505F4E65A7
:1032A00077427566666572204661696C65640D0AD1
:1032B00000000000003801405075626C697368209E
:1032C000546F7069633A2025732C204D73673A2040
:1032D00025730D0A00000000247379732F25732FC6
:1032E00025732F7468696E672F70726F70657274C2
:1032F000792F73657400000053756273637269629D
:103300006520546F7069633A2025730D0A00000030
:1033100066000020746F7069633A2025732C207456
:103320006F7069635F6C656E3A2025642C20706154
:10333000796C6F61643A2025732C207061796C6F11
:1033400061645F6C656E3A2025640D0A0000000020
:10335000706172616D7300006C6564006A6A797AED
:10336000000000003800002055706461746564201E
:103370004D5133207468726573686F6C6420746F8C
:103380003A2025640D0A0000546970733A094D51C2
:103390005454205075626C6973682053656E6420C4
:1033A0004F4B0D0A00000000546970733A094D51EB
:1033B000545420537562736372696265204572725A
:1033C0000D0A0000546970733A094D51545420534A
:1033D0007562736372696265204F4B0D0A000000CD
:1033E00070B5044601EA0205142C03DA28468B4323
:1033F000584070BD81EA02065E40282C01DA304652
:1034000070BD3C2C05DA1940694002EA03004840CF
:1034100070BD502CFCDA304670BD0146142901DA2B
:10342000CB487047282901DACA4870473C2901DA9D
:10343000C94870475029FCDAC848704710B50246A1
:1034400001209040401EC44301EA0403D3400140E0
:10345000C2F1200081400B43184610BD30B5044630
:10346000C4F1200301229A40521ED54301EA020012
:10347000A040294021FA03F2104330BD2DE9F04F5E
:10348000D8B08146154601F10800401CCA00C31798
:1034900000EB93639C11569423F03F03C01A00285D
:1034A00002DD5698401C56900846002302E009F8B9
:1034B0000030401C569CB0EB841FF8DB802009F8DC
:1034C0000100569809EB8010001FC270110A81702C
:1034D000110C4170110E0170A1485190A1485290F9
:1034E0009F48C04353909F48C04354909E48559076
:1034F0000020579077E00024102C19D257986A4684
:10350000800100EB840019F8001009064DF8241022
:103510004844437801EB034142F82410837801EBDF
:10352000032142F82410C078084442F8240018E02F
:10353000502C16D2E01EA4F110025DF82010401F9E
:103540005DF822205DF820006E464140A4F10E0097
:103550005DF82000504041400120FFF77FFF46F812
:103560002400641C502CC7D3DDF84481529850903D
:10357000539F549EDDF854A1002441460520FFF7D7
:103580006DFF834633463A4620465099FFF728FFA1
:10359000584400EB0A022046FFF73FFF10445DF855
:1035A000241001EB000BB2463E461E205099FFF757
:1035B00055FF0746CDF84081D846641C502CDCD31B
:1035C00051984044519052995098084452905398C1
:1035D00038445390549830445490559850445590E2
:1035E0005798401C579056995798884283DB5198BA
:1035F000E8705198000AA8705198000C68705198B2
:10360000000E28705298E8715298000AA8715298DA
:10361000000C68715298000E28715398E872539804
:10362000000AA8725398000C68725398000E287212
:103630005498E8735498000AA8735498000C68735F
:103640005498000E28735598E8745598000AA87489
:103650005598000C68745598000E287458B0BDE851
:10366000F08F2DE9F04FADF2945D8C46DDF8B87522
:103670009346984640254FF036094FF05C0A0021EA
:1036800000220DF254567254491C4029FBDBAC4514
:1036900013D00ADD3A466146FFF7F0FE0020395CA0
:1036A0003154401C1428FADB0EE0002402E0015DD6
:1036B0003155641C6445FADB06E0002102E0425CFF
:1036C0007254491CA942FADB00200DF21452315CFD
:1036D00081EA09011154401C4028F8DB002015A99B
:1036E000135C0B54401C4028FADB002005E00B184B
:1036F0001BF8002083F84020401C4045F7DB08EB16
:1037000005013A4615A8FFF7B9FE00200DF2D44195
:10371000325C82EA0A020A54401C4028F8DB00208E
:103720006A460B5C1354401C4028FADB0020131837
:10373000395C83F84010401C1428F8DB3A4605F148
:1037400014016846FFF79AFE0DF2945D87E70000CA
:103750009979825AA1EBD96EDCBC1B8FD6C162CAA3
:103760000123456789ABCDEFF0E1D2C32DE9F04FDE
:10377000099D0024A146002D14D00327B5FBF7F6C0
:10378000B5FBF7FC07FB165606B1012666446FF041
:10379000290CB6F1804F09D34FF0FF30106060461E
:1037A000BDE8F08FC2F800900020F9E7B600761C63
:1037B000B14208D338B1B5FBF7F101EB410A01463C
:1037C000DFF8008224E016606046E9E71E785F7843
:1037D0009B1C13F801CB4FEA960B18F80BB081F83D
:1037E00000B0360106EB271606F03F0618F8066013
:1037F0004E70BE0006EBAC1606F03F0618F80660E9
:103800008E700CF03F0618F80660CE70091DE41C9F
:103810005445DBD3AC4225D213F8016B641C3D2721
:10382000AC4201D21B7801E04FF00003C6F38504DF
:1038300018F804400C704FEA061404EB231404F04B
:103840003F0418F804404C7001F1020106D203F065
:103850000F0318F8233001F8013B01E001F8017B68
:1038600001F8017BA1EB0000106081F800904FF09F
:10387000000095E72DE9F047089F0024A446A046E4
:10388000DFF840A16FF02B050AF1400A43E0002663
:1038900001E0641C761CBC4204D213F80490B9F118
:1038A000200FF6D0BC4238D0A7EB0409B9F1020FC3
:1038B0000BD313F80490B9F10D0F06D103EB0409F3
:1038C00099F80190B9F10A0F24D013F80490B9F1D6
:1038D0000A0F1FD016B12846BDE8F087B9F13D0F99
:1038E00006D108F10108B8F1020F01D92846F3E723
:1038F000B9F17F0F0AD81AF809607F2E06D0402E42
:1039000006D2B8F1000F03D02846E5E72846E3E7E2
:103910000CF1010C641CBC42B9D3BCF1000F16D0F1
:103920004FEADC0505EB45056E000CF0070505EBDD
:103930004505072707EB450506EBD505A5EB08056B
:1039400008B1A94206D215606FF02900C4E7002033
:103950001060C1E7032600218C4605462CE01F7845
:103960000D2F27D00A2F25D0202F23D01AF807702B
:10397000402F0DD04FF00008A6EB080688463946C8
:1039800068F39F110CF1010CBCF1040F03D011E09E
:103990004FF00108F0E74FF0000C16B10F0C05F8DE
:1039A000017B012E02D90F0A05F8017B022E01D9F5
:1039B00005F8011B641E5B1C002CD0D1281A106076
:1039C000002089E7A4A200082DE9F04104460F4633
:1039D000002520680026002802D00220207315E070
:1039E00001202073384602F0BFFD2060002808D077
:1039F0006660A76002E0206846556D1CA068A8427A
:103A0000F9D8BDE8F081206846556D1CA068A84231
:103A1000F9D86660A068B842F3D22660F1E710B525
:103A20000446207B012802D1206802F0CCFD002052
:103A300020606060A060207310BD012200F07F0351
:103A40000B70C00948B143F0800301F8013B521CE0
:103A5000042AF3DD4FF0FF30704710467047F0B591
:103A600004460123002010605D0512E0275C166803
:103A700007F07F0707FB03661660265C360601D455
:103A8000401CF0BDDB01AB4202D36FF00100F0BD82
:103A9000401C8842EADB4FF0FF30F0BD38B50446E9
:103AA000FF2120780009421E0E2A01D3084638BDA6
:103AB0000328FCD1002000906A460421601CFFF717
:103AC000CEFF2044401C0099022902D32278D2075D
:103AD00001D0FF2038BD4278037842EA0322921CCD
:103AE0008A4201D9FF2038BDFEA1801C03F0F4F802
:103AF00008B10F2038BD032038BD2DE9FF5F924685
:103B0000DDF838B0DDF84480139C99460025504616
:103B100003F018F906B2BAF1000F20D006F1110037
:103B200087B2BBF1000F00D00225109868B145F0B4
:103B30000405109803F006F900F0FF0B404603F06F
:103B400001F958443844001D87B20F9870B101281C
:103B500007D0022808D0022004B0BDE8F09F012061
:103B6000FAE745F00C0501E045F01405129808B19C
:103B700045F02405009858B3019848B345F0C005B6
:103B8000009803F0DFF88346019803F0DBF858440F
:103B90003844001D87B239462046FFF715FF2068DC
:103BA000C0B1394603F0BBF960681022411C616066
:103BB00021680A54D4E900010144781FFFF73DFF52
:103BC00000B2002808DA2046FFF729FF0520C3E7E6
:103BD0000320C1E70420BFE7616808440022411CBC
:103BE000616021680A5460680421421C6260226896
:103BF000115460684D23421C62602268135460684F
:103C00005123421C62602268135460685422431C92
:103C1000636023681A546068431C636023681A5405
:103C20006068421C6260226811546068411C6160D7
:103C300021680D5460684FEA1922411C61602168B7
:103C40000A546068411C6160216801F80090606856
:103C5000320A411C616021680A546068411C61603D
:103C600021680E54D4E9000108443246514603F05D
:103C700021F8606830446060680736D5B8F1000FFD
:103C800001D10FF26828109803F05CF886B26068E2
:103C9000320A411C616021680A546068411C6160FD
:103CA00021680E54D4E9000108443246109903F00B
:103CB00001F8606830446060404603F043F886B223
:103CC0006068320A411C616021680A546068411CC6
:103CD000616021680E54D4E900010844324641462F
:103CE00002F0E8FF606830446060280618D500984C
:103CF00003F028F886B26068320A411C61602168CE
:103D00000A546068411C616021680E54D4E90001C6
:103D100008443246009902F0CDFF6068304460608C
:103D2000680618D5019803F00DF885B260682A0A74
:103D3000411C616021680A546068411C616021680F
:103D40000D54D4E9000108442A46019902F0B2FF5B
:103D50006068284460600020FEE610B50446022139
:103D60002046FFF731FE216861B16068E023421C04
:103D700062600B5460680022411C616021680A5433
:103D8000002010BD012010BD4178022901D0012082
:103D90007047817819B1012901D0FF207047C078A0
:103DA00070472DE9FF4F81B08246119C0F999146D3
:103DB0009B46002500270022BAF1000F08D1012000
:103DC00005B0BDE8F08F232816D02B2814D06D1C29
:103DD0000298405D0028F6D142F0300809B148F061
:103DE000010805EB0B06B61C0E9870B1012805D032
:103DF000022807D00320E3E70220E1E748F00208A9
:103E0000B61C02E048F00408B61CB9F1000F28D037
:103E100099F80000022809D0711D2046FFF7D4FD53
:103E20002068E0B1711D03F07AF823E000273846DE
:103E30007F1C19F800007D28F9D13F1DABEB07006E
:103E4000311A0091C91C2046FFF7BEFD206820B141
:103E50000099C91C03F063F80CE00420B0E70420CB
:103E6000AEE7711D2046FFF7AFFD2068A8B1711DB8
:103E700003F055F86068411C6160216801F800801A
:103E8000D4E9000101443046FFF7D7FD002806DAE7
:103E90002046FFF7C4FD052092E7042090E7616803
:103EA00008442A0A411C616021680A546068411C68
:103EB000616021680D54D4E9000108442A46029942
:103EC00002F0F8FE6068284460600E9991B1411CD0
:103ED000616021684FEA1A220A546068411C6160DF
:103EE000216805E024637265710000000000000095
:103EF00001F800A0B9F1000F0DD099F800000228D8
:103F00000BD0D4E9000108445A46494602F090FF1C
:103F1000606858446060002052E7D4E9000108441A
:103F20003A46494602F084FF606838446060F2E730
:103F300030B591B01546149C03460091FDA2302186
:103F400005A802F0A5FB01200021CDE90204CDE97E
:103F500000010A462B4605A90A20FFF722FF10B1EF
:103F6000012011B030BD0020FBE72DE9FF5F0446C2
:103F70000D4693464FF00109204602F0E3FE0D3056
:103F800002F0F2FA0746380033D02246F1A102F0DF
:103F900069FB384602F0D6FEC6B206EB050808F10A
:103FA0000708A8EB050002F0DFFA0446200022D043
:103FB000022020704FF0000A84F801A0A67032465B
:103FC0003946E01C02F034FF290EA019C170290CFB
:103FD0000171290A417185710120CDE9000ACDE9FD
:103FE000020B43462246DFA10A20FFF7DAFE38B172
:103FF00008E04846B0E5384602F0E5FA4846ABE549
:104000004FF00009384602F0DEFA204602F0DBFAF3
:104010004846A1E52DE9F84380460C4617461D4663
:104020002F2108F1060002F03BFE0021009148B369
:10403000461C6A46042108F10100FFF710FD252007
:1040400002F092FA2060F8B1252102F068FF2422E4
:104050003146206802F0ECFE243600982C3880B2FD
:104060002880401C02F080FA386078B12988491C09
:1040700002F055FF2A883146386802F0D9FE002048
:10408000BDE8F8830120FBE70220F9E7206802F091
:104090009AFA0320F4E72DE9FF4781468846174640
:1040A000484602F04FFE84B2404602F04BFE002626
:1040B000E01D02F059FA054625B3E11D284602F03D
:1040C0002EFFA9A0016829608088A8802246494661
:1040D000284602F0EFFD404602F034FE0346002081
:1040E00001AC0121009083C4424629460A20FFF713
:1040F00058FE00B10126284602F065FA304604B0A9
:10410000BDE8F0870120FAE72DE9F0478246089CD8
:1041100089461746984600260025BAF1000F09D1B6
:104120000120EDE757F8250018B302F00BFE064416
:104130006D1CEDB24545F5D308EB48008519AD1C63
:10414000691D2046FFF740FC2168A1B16068822309
:10415000421C62600B54D4E9000101442846FFF779
:104160006CFC00B2002808DA2046FFF758FC042057
:10417000C6E70220C4E70320C2E761680844411C87
:10418000616021684FEA1A220A546068411C61602C
:10419000216801F800A0002520E057F8250002F072
:1041A000D1FD06466068320A411C616021680A54EC
:1041B0006068411C616021680E54D4E90001084424
:1041C00057F82510324602F075FD60683044411CF6
:1041D0006160216801F800906D1CEDB24545DCD3AB
:1041E00000208DE70146FF208A78002A0BD1CA788B
:1041F000142A08D1087938B1012805D0022803D043
:10420000802803D0022070470020704701207047AB
:104210002DE9F04781460F4690461C4600260025B2
:10422000B9F1000F09D101206AE757F8250010B352
:1042300002F088FD06446D1CEDB24545F5D306EB52
:104240004805AD1C691D2046FFF7BEFB2168A1B1E2
:104250006068A223421C62600B54D4E9000101444F
:104260002846FFF7EAFB00B2002808DA2046FFF7ED
:10427000D6FB042044E7022042E7032040E76168C0
:104280000844411C616021684FEA19220A546068A1
:10429000411C6160216801F8009000251CE057F87E
:1042A000250002F04FFD06466068320A411C61603D
:1042B00021680A546068411C616021680E54D4E989
:1042C0000001084457F82510324602F0F3FC6068FC
:1042D000304460606D1CEDB24545E0D300200FE72F
:1042E000014601208A78002A03D1C9781E2900D10D
:1042F000002070472DE9F84F0546DDE90A7B0E46A0
:1043000014469846287800F00F090020009009F024
:10431000080AC9F341008BF800006A460421681CB2
:10432000FFF79DFB05446D1C0098022821D35FEA2E
:10433000C9701DE0247379732F25732F25732F7493
:1043400068696E672F70726F70657274792F706F05
:10435000737400007B2264735F6964223A222573C0
:10436000227D00002464700024637273702F0000AB
:1043700002D0FF20BDE8F88F6878297840EA012054
:1043800020800099801C884201D9FF20F2E7AFF21B
:10439000AC41A81C02F0A0FC08B10F20EAE79BF892
:1043A000000028B1012837D0022835D0FF20E1E7EE
:1043B000BAF1000F01D0FF20DCE72088401C02F09A
:1043C000D3F8306008B32188491C02F0A8FD228888
:1043D000A91C306802F02CFD20880099081A801E64
:1043E00080B23880401C02F0BFF8C8F8000070B1FD
:1043F0003988491C02F093FD2088AD1C41193A8888
:10440000D8F8000002F014FD3EE0FF20B2E730686B
:1044100002F0D9F8FF20ADE72088009A811C914274
:1044200001D9FF20A6E7E91C425CA91C405C42EAD6
:1044300000210C9801800C9860B32088401C02F089
:1044400093F8306040B32188491C02F068FD22884F
:10445000A91C306802F0ECFC20880099081A001FA3
:1044600080B23880401C02F07FF8C8F80000A8B184
:104470003988491C02F053FD20882D1D41193A88C6
:10448000D8F8000002F0D4FC2B21304602F008FCE2
:1044900070B908E0FF206DE7FF206BE7306802F09D
:1044A00092F8FF2066E72321304602F0F9FB08B1BD
:1044B000FF205FE700205DE770B505460C4604214C
:1044C0002046FFF781FA2168B9B160684023421C99
:1044D00062600B5460680222411C616021680A54CA
:1044E00060682A0A411C616021680A546068411CA6
:1044F000616021680D54002070BD012070BD4178BD
:10450000022901D001207047817811B9C0780A28AA
:1045100001D0012070470020704770B505460C4659
:1045200004212046FFF750FA2168B9B16068502392
:10453000421C62600B5460680222411C6160216869
:104540000A5460682A0A411C616021680A54606844
:10455000411C616021680D54002070BD012070BDB8
:104560004178022901D001207047817811B9C078C3
:104570000A2801D0012070470020704770B5054619
:104580000C4604212046FFF71FFA2168B9B1606884
:104590006223421C62600B5460680222411C61600D
:1045A00021680A5460682A0A411C616021680A5423
:1045B0006068411C616021680D54002070BD0120BD
:1045C00070BD4278022A01D0012070478278B2EB98
:1045D000112F05D1C078C9B2884201D1002070479F
:1045E0000120704770B505460C4604212046FFF7B0
:1045F000EBF92168B9B160687023421C62600B540A
:1046000060680222411C616021680A5460682A0ABD
:10461000411C616021680A546068411C6160216826
:104620000D54002070BD012070BD4178022901D0D9
:1046300001207047817811B9C0780A2801D0012083
:1046400070470020704710B5044602212046FFF74E
:10465000BBF9216861B16068C023421C62600B54E1
:1046600060680022411C616021680A54002010BD6E
:10467000012010BD10B54FF400716E4802F04FFCE0
:104680006D490020088010BD6B490888002805D0BE
:104690004A88904204D1002008807047012070476A
:1046A00048800120704770B506460D46C824304644
:1046B00002F048FB82B231466048FCF784FF0EE00E
:1046C000FFF7E2FF40B929465A4802F005FB18B14E
:1046D000FFF7D0FF002070BD0A20FCF7A4FE641E87
:1046E000E4B2EDD2012070BD30B589B004460D466C
:1046F000FFF7C0FF2A4652A101A801F0B3FF54A161
:1047000001A8FFF7D0FF002804D12A4621464B48D4
:10471000FCF759FF09B030BD10B50446FFF7B4FFF0
:1047200060B94CA1434802F0D7FA38B13A2102F0FF
:10473000B7FA08B1401C10BD002010BD0520FCF7E1
:1047400072FE641EA4B2E9D2002010BD10B5FFF7BE
:1047500091FF01F050FD0021082340A2084601F01E
:1047600007FE4FF4FA7402E02046FCF75CFE3DA120
:104770003DA0FFF798FF0028F6D108233CA20221B4
:1047800001F0F6FD02E02046FCF74DFE35A13BA00E
:10479000FFF789FF0028F6D108233CA2042101F08D
:1047A000E7FD02E02046FCF73EFE2EA13BA0FFF70E
:1047B0007AFF0028F6D108233CA2062101F0D8FD9B
:1047C00002E02046FCF72FFE3BA13DA0FFF76BFF68
:1047D0000028F6D142A14848FCF70DFF01F00BFD7F
:1047E0000021102345A2084601F0C2FD2046BDE885
:1047F0001040FCF718BE10B5104C40F22551204671
:10480000FCF786FB002814D00B4A1088B0F5007F17
:1048100001D3002010800948001D008811884B1C1E
:104820001380044A50542046BDE810402021FCF774
:104830006BBB10BD382A00206800002000440040F7
:1048400041542B43495053454E443D25640D0A00C5
:104850003E0000004950442C00000000312E41541D
:104860002E2E2E004F4B000041540D0A0000000078
:10487000322E43574D4F44452E2E2E0041542B438C
:10488000574D4F44453D310D0A000000332E415431
:104890002B4357444843502E2E2E000041542B43A7
:1048A00057444843503D312C310D0A00342E4357B4
:1048B0004A41502E2E2E0000474F542049500000F0
:1048C00041542B43574A41503D224F50504F222CC8
:1048D000223132333435363738220D0A00000000D9
:1048E000352E204553503832363620496E697420B3
:1048F0004F4B0D0A0000000000380140455350386E
:1049000032363620496E6974204F4B00FE4880686D
:10491000704770B504460D46002C01D02DB10AE059
:104920000DB1012070BD002070BD012070BD207848
:1049300098B1641C6D1C207801F06CFE0646287846
:1049400001F068FE8642F2D0207801F063FE044652
:10495000287801F05FFE201A70BD002070BD70B590
:104960000646304602F0EEF9451CE74B28461B6828
:104970009847041E06D02A463146204602F058FACF
:10498000204670BD002070BDDF4A002802D00168BB
:1049900031B904E0DD481060DD4850607047DB4904
:1049A0001160406800B9DA485060704710B5D649C8
:1049B00028200968884704461CB12821204602F0B7
:1049C000D0FA204610BD70B50446CF4E19E02568D8
:1049D000A089C00503D4A06808B1FFF7F4FFA0893F
:1049E000C00503D4206908B171688847A089800593
:1049F00003D4206A08B171688847716820468847E7
:104A00002C46002CE3D170BD2DE9F34F85B08A46CA
:104A100000242546BF490020CDE902010026374683
:104A20008346012001909AF800002D2805D1BA494B
:104A30000020CDE902010AF1010A9AF800003028AD
:104A400001D10AF1010A9AF800003138082817D874
:104A50009AF80000303804F05CFF80468946002256
:104A6000AE4B2046294604F0A7FF42464B4604F0D1
:104A7000D1FC04460D461AF8010F30380928E7D951
:104A80009AF800002E2827D19AF80100302823D365
:104A9000392821D80AF1010A9AF80000303804F0C8
:104AA00038FF8046894600229C4B2046294604F068
:104AB00083FF42464B4604F0ADFC04460D460022FF
:104AC000944B3046394605F09DF906460F461AF8D4
:104AD000010F30380928DFD99AF80000652801D085
:104AE00045281DD11AF8010F2B2802D02D2803D0FC
:104AF00010E00AF1010A0DE04FF0FF3001900AF1D9
:104B0000010A07E00BEB8B0100EB410B0AF1010AF4
:104B1000ABF1300B9AF80000A0F130010929F1D96E
:104B200001980BFB00F004F0F4FE32463B4604F023
:104B300071FC02460B460020784903F02DFF064623
:104B40000F46DDE9020122462B4604F035FF3246CE
:104B50003B4604F031FF04460D460598C0E9064582
:104B60002046294604F0A6FE0599486105980321D0
:104B7000C16007B05046BDE8F08F401E40EA6000BB
:104B800040EAA00040EA201040EA202040EA20400D
:104B9000401C70472DE9F0410446002C09D02268E2
:104BA0003AB1A36858186168814204DBD018BDE8A7
:104BB000F0810020FBE7FFF7E0FF0746524E384642
:104BC00031688847054665B1D4E90012284602F0ED
:104BD0002FF971682068884767602560A0682844BD
:104BE000E5E7716820688847002060602060DEE7A4
:104BF00010B50446002C08D0206830B1A1680844E4
:104C000002F0A0F8A168084410BD002010BD2DE9F5
:104C1000F04707460E46DFF8F080DFF80491D7E949
:104C20000645002213462046294604F007FE13D10C
:104C30002EB102213046FFF7ADFF804604E0D8F8E0
:104C40000010022088478046B8F1000F03D035A03D
:104C50000088A8F8000098E0786904F05AFE22461F
:104C60002B4605F0CFF821F0004100224B4604F01E
:104C700067FE22D82C4A2D4B2046294604F060FEC0
:104C80001BD800222A4B2046294604F093FF14D853
:104C90002EB115213046FFF77DFF804604E0D8F89D
:104CA0000010152088478046B8F1000F6DD021A173
:104CB00040467A6901F0D6FC67E02EB140213046CB
:104CC000FFF768FF804604E0D8F8001040208847CE
:104CD0008046B8F1000F58D02046294603F0EEFD7B
:104CE00022462B4605F08EF821F0004100224B466B
:104CF00004F026FE2BD825F0004120460E4A0F4B2B
:104D000004F01EFE23D21BE06C0000206965000841
:104D1000C76500080000F03F0000F0BF000024401D
:104D20000000B03C300000000000C0FFFFFFDF418A
:104D30000000E0C12564000044F3C2E4E4E9634CF0
:104D400022462B46F7A1404601F08CFC1DE0204690
:104D500025F0004106460F46F44AF54B04F0F0FDFD
:104D600006D3304639460022F24B04F023FF06D228
:104D700022462B46F0A1404601F074FC05E0224695
:104D80002B46EEA1404601F06DFC4046BDE8F087A1
:104D90000178A1F13002092A01D811460AE0A1F1F7
:104DA0004102052A01D8373904E0A1F16102052A40
:104DB0000AD857390A01401C0178A1F13003092BA8
:104DC00004D8303A11440EE000207047A1F14103AD
:104DD000052B02D8373A114405E0A1F16103052BF8
:104DE0000BD8573A11440A01401C0178A1F1300355
:104DF000092B04D8303A11440EE000207047A1F18D
:104E00004103052B02D8373A114405E0A1F16103B3
:104E1000052B0AD8573A114409014078A0F1300215
:104E2000092A04D830390844704700207047A0F19F
:104E30004102052A02D8373908447047A0F16102BF
:104E4000052A02D8573908447047002070472DE9D9
:104E5000F04780460D466C1C00202A78B849222A6B
:104E600005D08D6092E7641C5C2A00D1641C227816
:104E7000222A02D00AB1401CF5D10968401C88479B
:104E80000746380004D0681C3C464FF480691AE09D
:104E900000207BE75C2903D004F8011B401C12E0D2
:104EA000461C3078722825D006DC622816D0662889
:104EB00018D06E2804D119E074281FD0752821D08D
:104EC00004F8010B701C0178222901D00029E1D1DE
:104ED00000212170017822296AD06AE0082004F8B4
:104EE000010BEFE70C2004F8010BEBE70A2004F8B4
:104EF000010BE7E70D2004F8010BE3E7092004F8B4
:104F0000010BDFE7701CFFF743FF0546361DA5F5D3
:104F10005C404845D6D3002DD4D0A5F5584048452F
:104F200013D270785C28CDD1B0787528CAD1F01C26
:104F3000FFF72EFFB61DA0F55C414945C2D2C5F36F
:104F4000090161F39F2000F580350421802D01D2F5
:104F5000012108E0B5F5006F01D2022103E0B5F5AB
:104F6000803F00D20321601801291AD0022911D0F4
:104F7000032908D0042919D105F0BF0242F08002AC
:104F800000F8012DAD0905F0BF0242F0800200F8E3
:104F9000012DAD0905F0BF0242F0800200F8012D9D
:104FA000AD09684A525C2A4300F8012D441889E78C
:104FB000401CC8F810700421C8F80C10E6E62DE972
:104FC000F05F05468A4600240021A9460AE0421EF9
:104FD0001F2A15D3222813D05C2811D000200143AA
:104FE00009F1010999F800000028F0D1DFF850B16B
:104FF00080462227DBF8002021B125B32E4643E06E
:105000000120ECE7A9EB0506BAF1000F05D0F11C71
:105010005046FFF7BFFD044602E0F01C90470446EF
:105020007CB1277004F101092946484601F066FE6B
:1050300009F8067009EB060080F801802046BDE8FB
:10504000F09F0020FBE7BAF1000F05D00321504686
:10505000FFF7A0FD044602E00320904704462CB170
:1050600039A1204601F04AFE2046E8E70020E6E7A5
:10507000494636A001F014FE08B1641C03E0B9F102
:10508000200F00D2641D761C96F80090B9F1000F35
:1050900001D0641CECD1BAF1000F05D0E11C5046E0
:1050A000FFF778FD064604E0DBF80010E01C8847B7
:1050B00006462EB1304600F8017B4FF05C0925E032
:1050C0000020BCE71F2907D9222905D05C2903D07D
:1050D00000F8011B6D1C19E000F8019B044615F84F
:1050E000012B0C2A41D006DC082A3AD0092A48D0E4
:1050F0000A2A06D13DE00D2A3FD0222A2ED05C2A72
:105100000CD014A1204601F0ADFA601D29780029C9
:10511000D8D1077080F80180304690E784F800907D
:10512000601CF3E7252E3066000000008DEDB5A071
:10513000F7C6B03E65CDCD4125650000256600006F
:105140006C00002064A3000822220000225C080CEE
:105150000A0D090075253034780000002770601CA6
:10516000D4E762202070601CD0E766202070601CAD
:10517000CCE76E202070601CC8E772202070601C95
:10518000C4E774202070601CC0E7006917E700E0E6
:10519000401C002804D00178002901D02029F7D92B
:1051A00070472DE9F04107460878FE4E7B2802D073
:1051B000B1600020FBE40620F860481CFFF7E7FF21
:1051C000054628787D2818D0FFF7F0FB0446B86024
:1051D000A8B12846FFF7DBFF01462046FFF737FE60
:1051E000FFF7D5FF68B121692162002727610178A7
:1051F0003A2908D0B0600020D9E4681CD7E4002028
:10520000D5E40020D3E4401CFFF7C1FF014620464F
:1052100000F086F8FFF7BBFF0546280028D1C6E45A
:10522000FFF7C4FBA8B1206044600446681CFFF788
:10523000AEFF01462046FFF70AFEFFF7A8FF50B178
:1052400021692162276101783A2906D0B0600020E7
:10525000ADE40020ABE40020A9E4401CFFF797FF79
:105260000146204600F05CF8FFF791FF054645B186
:1052700028782C28D4D028787D2804D0B560002048
:1052800095E4002093E4681C91E42DE9F041074681
:105290000878C44E5B2802D0B160002087E4052066
:1052A000F860481CFFF773FF044620785D2811D092
:1052B000FFF77CFB0546B86070B12046FFF767FF3B
:1052C0000146284600F02CF8FFF761FF0446200055
:1052D00004D016E0601C6AE4002068E4002066E464
:1052E000FFF764FBB0B1286045600546601CFFF71E
:1052F0004EFF0146284600F013F8FFF748FF04462A
:1053000054B120782C28EBD020785D2806D0B460EA
:1053100000204CE400204AE4002048E4601C46E4FD
:1053200070B505460C46002C20D004229EA12046D4
:1053300001F027FDE0B105229DA1204601F021FDED
:10534000D0B104229CA1204601F01BFDC0B1207801
:1053500022281AD02D2803D0A0F13001092919D80C
:1053600021462846BDE87040FFF74EBB002070BDC7
:105370000220E860201D70BD0020E860601D70BD47
:105380000120E8606861201D70BD21462846BDE807
:1053900070405CE55B2805D07B2808D0814884609C
:1053A000002070BD21462846BDE870406DE72146CB
:1053B0002846BDE87040F4E62DE9F04104460D466C
:1053C0009046FFF7F3FA0646764F0020B860BEB16C
:1053D0002046FFF7DCFE01463046FFF7A1FF0446FA
:1053E00084B1B8F1000F12D02046FFF7D0FE04467A
:1053F000207860B13046FFF7E6FABC600020D9E6BD
:105400000020D7E63046FFF7DEFA0020D2E605B1ED
:105410002C603046CEE600221146CDE72DE9FF5F35
:105420008346894615461F460020039007200190B9
:105430000024DBF8080000260021009101E0761C22
:1054400000680028FBD1DFF85C81D8F800102EB18D
:10545000002F7DD0BE687DB302242FE04FB115B17F
:1054600009F1040100E003213846FFF793FB0246EF
:1054700006E015B109F1040000E003208847024668
:1054800062B110467B2100F8011B7DB10A2100F8B2
:10549000011B00210923A9F1010905E0002004B046
:1054A000CDE500F8013B491C4945FADB7D2101703F
:1054B000002141701046F2E7FFE70124611C3846E5
:1054C000FFF768FB90B17B2100F8011B15B10A21A1
:1054D00000F8011B4FF0000880F80080B8682044F5
:1054E000B860DBF8084009F101096DE00020D6E75B
:1054F0008DB149463846FFF74DFB10B10021092216
:1055000004E00020CBE700F8012B491C4945FADBF9
:10551000B8684844B8603946206AFFF750FD3846FD
:10552000FFF766FBB86015B14FF0020A01E04FF0DB
:10553000010A51463846FFF72DFBB8B13A2100F871
:10554000011B0DB109210170B8685044B86000E03A
:105550005CE03B462A464946204600F039FA384688
:10556000FFF746FBB8601DB1012002E0002096E77E
:105570000020216809B1012100E0002100EB010AAF
:105580000AF101013846FFF705FB18B3216811B194
:105590002C2100F8011B15B10A2100F8011B80F82D
:1055A00000800DE06C0000206E756C6C0000000047
:1055B00066616C7365000000747275650000000020
:1055C000B8685044B8602468002C91D125B109F125
:1055D000010102E0002062E702213846FFF7DAFA13
:1055E00028B15DB100260921A9F1010904E00020DC
:1055F00055E700F8011B761C4E45FADB7D21017052
:1056000080F80180386830440390E1E04FEA860A70
:10561000504688470746380018D0FC49504609686C
:10562000884780465FEA080012D05146384601F0AC
:1056300098FC5146404601F094FCDBF808B009F1B3
:10564000010A9DB301985044019034E0002026E700
:10565000EE49384649688847002020E70021DBF8FA
:105660002000FFF7ACFC029048F8240000232A46F3
:105670005146584600F0ACF92146641C47F8210019
:105680000299A1B198B101F05DFB8146029801F049
:1056900059FB09EB000115B10AF1020000E00020FE
:1056A000014401980844801C019002E003E00120BD
:1056B0000090DBF800B0BBF1000FCFD1009820B90B
:1056C000D2490198096888470390039808B90120D6
:1056D00000900098B8B10024CC4D0AE058F824009E
:1056E00008B16968884757F8240008B16968884795
:1056F000641CB442F2DB69684046884769683846F2
:1057000088470020CBE603997B200870039C641C2B
:1057100015B10A2004F8010B0020207081463FE0FB
:105720003DB10020092102E004F8011B401C504556
:10573000FADB58F8290001F005FB834658F82910D8
:105740005A46204601F074FB5C443A2004F8010BF1
:1057500015B1092004F8010B57F82910204601F073
:10576000CDFA57F8290001F0EDFA0444701E814586
:1057700002D02C2004F8010B15B10A2004F8010B0B
:1057800000202070DFF884B258F82900DBF80410FC
:105790008847DBF8041057F82900884709F1010908
:1057A000B145BDDB994E40467168884771683846FF
:1057B00088474DB100200921AAF1010A02E004F84E
:1057C000011B401C5045FADB7D20207000206070DA
:1057D000039864E62DE9FF4F83B0834690461F4649
:1057E0004FF000094FF0050ADBF8080000260025FD
:1057F000002401E0761C00680028FBD1834A116870
:105800007EB1002F60D0BE6801213846FFF7C2F993
:10581000D0B15B210170B868401CB860DBF808505B
:105820003EE02FB103213846FFF7B4F9044602E009
:105830000320884704461CB175A1204601F05EFA9A
:10584000204607B0BDE8F08F0020FAE704993B46F8
:105850004246491C284600F0BBF83846FFF7C8F915
:10586000B8602868D8B1B8F1000F02D04FF0020933
:1058700001E04FF0010909F101013846FFF78AF90B
:10588000F0B12C2100F8011BB8F1000F02D020214B
:1058900000F8011B00210170B8684844B8602D6809
:1058A0000DB1002CD2D002213846FFF773F948B170
:1058B0005D21017000214170386800EB060985E028
:1058C0000020BEE70020BCE7B000029088470746F2
:1058D000380005D0029901F044FBDBF808B01EE067
:1058E0000020AEE7049900234246491C584600F0C8
:1058F0006FF829466D1C47F8210068B101F022FAC3
:105900000146B8F1000F01D0012000E0002008445A
:1059100082440AF1020A00E00124DBF800B0BBF186
:10592000000F01D0002CDDD024B938495046096859
:1059300088478146B9F1000F00D101247CB10024D1
:10594000324D05E057F8240008B169688847641CA7
:10595000B442F7DB696838468847002071E75B206E
:1059600089F800004C464FF0000A04F801AF00250A
:10597000DFF898B020E057F8250001F0E3F9019036
:1059800057F825102046019A01F052FA0198044474
:10599000701E85420AD02C2004F8010BB8F1000FCC
:1059A00002D0202004F8010B84F800A0DBF80410DA
:1059B00057F8250088476D1CB542DCDBDBF8041086
:1059C000384688475D20207084F801A0484638E7B3
:1059D00070B50024002809D0ABB3057B072D73D226
:1059E000DFE805F018250632373C4000002070BD86
:1059F00005211846FFF7CEF80446002C64D0AFF21C
:105A00005841204601F07AF95EE000006C00002069
:105A10005B5D000006211846FFF7BCF80446002C29
:105A200052D0AFF27441204601F068F94CE00521F4
:105A30001846FFF7AFF8044634B3AFF2844120466E
:105A400001F05CF940E011E01946FFF7E0F8044688
:105A50003AE01946FFF799FB044635E0FFF7BAFE36
:105A6000044631E0FFF7DAFC04462DE0037B072B08
:105A70002AD2DFE803F00A1004161B202500AFF23B
:105A8000D840FEF76CFF04461EE0AFF2DC40FEF7A4
:105A900066FF044618E0AFF2E040FEF760FF044600
:105AA00012E00021FFF7B3F804460DE00021FFF7F4
:105AB0006CFB044608E00023FFF78CFE044603E07D
:105AC0000023FFF7ABFC0446204670BD00230122F3
:105AD00019467DE700231A46194679E7FEB50546C3
